:020000040800F2
:100000000028002035120008C5110008CB11000897
:10001000D1110008D7110008DD1100080000000010
:10002000000000000000000000000000E3110008D4
:10003000EF11000800000000FB1100080712000883
:100040007D1200087D1200087D1200087D12000854
:100050007D1200087D1200087D1200087D12000844
:100060007D1200087D1200087D1200087D12000834
:100070007D1200087D1200087D1200087D12000824
:100080007D1200087D1200087D1200087D12000814
:100090007D1200087D1200087D1200087D12000804
:1000A0007D1200087D1200087D1200087D120008F4
:1000B000151200087D120008000000007D120008E3
:1000C0007D12000800000000000000007D12000802
:1000D000000000007D1200087D12000800000000F2
:1000E0007D1200087D1200087D120008000000004B
:1000F0000000000000000000000000000000000000
:0C01000000000000000000005FF808F1A3
:10010C0010B5054C237833B9044B13B10448AFF345
:10011C0000800123237010BD480000200000000067
:10012C00D428000808B5034B1BB103490348AFF3AF
:10013C00008008BD000000004C000020D4280008FE
:10014C0080B582B000AF78607B68022B79D07B6879
:10015C00022B00F3A3807B68002B03D07B68012B60
:10016C005BD09BE04F4B1B68012B02D14D4B002207
:10017C001A604D4B1B6801334B4A13604FF4FA70F5
:10018C0000F006FF01220221484801F074FBFA201E
:10019C0000F018FF4FF4FA7000F02EFF424B1B6872
:1001AC00032B06DD404B00221A60414B4FF0FF320F
:1001BC001A603D4B1B68002B0BD000224FF4807152
:1001CC003A4801F058FB01224FF40071374801F016
:1001DC0052FB354B1B68032B5BD801A252F823F062
:1001EC00FD01000807020008110200081B020008AC
:1001FC00304B1B68304A13600EE02E4B1B682E4AA6
:10020C00136009E02D4B1B682B4A136004E02C4B48
:10021C001B68294A136000BF3BE02A4B1B68012B6B
:10022C0002D1284B00221A60234B1B680133224A4F
:10023C001360214B1B68632B2DDD1F4B01221A60B1
:10024C0029E0214B1B68012B02D11F4B00221A60A5
:10025C00154B1B68032B20D801A252F823F000BFCA
:10026C009B0200087D02000887020008910200082A
:10027C00114B1B680F4A13600AE00F4B1B680F4AA7
:10028C00136005E00C4B1B680D4A136000E000BFC7
:10029C0003E000BF02E000BF00E000BF00BF083772
:1002AC00BD4680BD640000207C0000200008014099
:1002BC0034000020800000208C00002084000020EE
:1002CC0088000020680000206C00002080B483B0FF
:1002DC0000AF7860054B1B68012B02D1034B002249
:1002EC001A6000BF0C37BD4680BC7047640000200C
:1002FC0080B582B000AF00237B6089E0494A7B68FF
:10030C0052F8232048497B6841F82320474A7B68F0
:10031C0052F8232043497B6841F823207B68002B4B
:10032C000BD14FF40051424801F08EFA03461946A6
:10033C003E4A7B6842F8231019E07B68012B0BD1F5
:10034C004FF480413A4801F07FFA03461946374A88
:10035C007B6842F823100AE04FF40041344801F066
:10036C0073FA03461946314A7B6842F823102E4A29
:10037C007B6852F823202B497B6851F823309A4232
:10038C0043D1284A7B6852F8232028497B6851F8CE
:10039C0023309A4239D1274A7B6852F823202349CB
:1003AC007B6851F823309A4218D0204A7B6852F867
:1003BC00232020497B6841F823201C4A7B6852F893
:1003CC002330002B05D17868FFF7BAFE1A4A7B68F8
:1003DC0013601A4B4FF496721A6016E0174B1B6899
:1003EC00013B164A1360154B1B68002B0DD10F4AAD
:1003FC007B6852F82330002B04D10F4B1B68184636
:10040C00FFF764FF0D4B64221A607B6801337B603D
:10041C007B68022B7FF772AF00BF00BF0837BD4669
:10042C0080BD00BF0C000020000000201800002040
:10043C000008014024000020700000203000002043
:10044C0080B500AF524B1B68032B00F2928001A2C7
:10045C0052F823F07104000877040008CF04000858
:10046C002705000800F09CF88FE04A4B1B681846E3
:10047C0000F0A4FB01220821474801F0FCF90122FD
:10048C001021454801F0F7F901224021424801F0C2
:10049C00F2F901228021404801F0EDF93F4B1B6835
:1004AC00012B6DD13D4B00221A6004213A4801F01A
:1004BC00FAF92021384801F0F6F9FA2000F082FD13
:1004CC005EE0344B1B68184600F078FB01220421D7
:1004DC00314801F0D0F9012210212F4801F0CBF95D
:1004EC00012220212C4801F0C6F9012280212A4842
:1004FC0001F0C1F9294B1B68012B43D1274B00227A
:10050C001A600821244801F0CEF94021224801F05C
:10051C00CAF9FA2000F056FD34E01E4B1B68184651
:10052C0000F04CFB012204211B4801F0A4F901222C
:10053C000821194801F09FF901222021164801F0E9
:10054C009AF901224021144801F095F9134B1B68CC
:10055C00012B19D1114B00221A6010210E4801F009
:10056C00A2F980210C4801F09EF9FA2000F02AFD36
:10057C000AE0632000F022FB632000F0C1FA04E0E3
:10058C0000BF02E000BF00E000BF00BF80BD00BFA5
:10059C007C0000208C00002000080140940000200A
:1005AC0080B500AF4A4B1B68032B5BD801A252F8F5
:1005BC0023F000BFD1050008FB0500082106000848
:1005CC0049060008434B1A68434B1B68D21A434B2D
:1005DC001B689A4252D1424B1B68002B4ED1414BA7
:1005EC001B683F4A13603A4B01221A6046E03B4BB2
:1005FC001B68002B0ED13A4B1B68002B0AD1364BD3
:10060C001B68364A1360334B1B68354A1360304BFA
:10061C0002221A60314B1B68002B0FD12D4B1A682C
:10062C002D4B1B68D21A2E4B1B689A4206D12D4BB0
:10063C001B682A4A1360264B03221A60274B1B683F
:10064C00002B1DD1264B1B68002B19D1214B1B688D
:10065C00224A1360204B1B68214A13601C4B00225A
:10066C001A600DE01B4B1B681C4A13601A4B1B686D
:10067C001B4A1360164B00221A6002E000BF00E018
:10068C0000BF134B1B68184600F03AFA134B1B685B
:10069C005A1E134B1B68013B1946104600F0CAFA50
:1006AC00114B1B68012B10D10F4B00221A600B4B06
:1006BC001B68013B094A1360094B1B68013B084A44
:1006CC0013604FF47A7000F097FC00BF80BD00BF40
:1006DC0034000020800000208800002074000020DE
:1006EC0078000020840000209800002080B582B0A3
:1006FC0000AF786039603B68002B03D03B68012B5E
:10070C0045D083E07B681B68DBB21A4680214148E8
:10071C0001F0B1F87B6804331B68DBB21A464FF466
:10072C0080713C4801F0A7F87B6808331B68DBB28A
:10073C001A464FF40071374801F09DF87B680C3372
:10074C001B68DBB21A464FF48061324801F093F813
:10075C007B6810331B68DBB21A464FF400612D48DE
:10076C0001F089F87B6814331B68DBB21A464FF42E
:10077C008051284801F07FF87B6818331B68DBB286
:10078C001A464FF40051234801F075F83EE07B689F
:10079C001B68DBB21A4601211E4801F06CF87B681D
:1007AC0004331B68DBB21A4602211A4801F063F8C5
:1007BC007B6808331B68DBB21A460421154801F02C
:1007CC005AF87B680C331B68DBB21A4608211148B7
:1007DC0001F051F87B6810331B68DBB21A4610210C
:1007EC000C4801F048F87B6814331B68DBB21A46DE
:1007FC002021084801F03FF87B6818331B68DBB2F6
:10080C001A464021034801F036F800BF00BF0837F4
:10081C00BD4680BD000C0140B0B5D0B000AF3B1D53
:10082C0018603B4619603B1D1B68092B00F2F380D6
:10083C0001A252F823F000BF6D080008A7080008B9
:10084C00CB080008EF080008130900083709000856
:10085C005B09000893090008B7090008DB090008C8
:10086C000023C7F824310023C7F828310023C7F828
:10087C002C310023C7F830310023C7F83431002362
:10088C00C7F838310123C7F83C313B4607F5927263
:10089C0019681046FFF72AFFE1E0734B07F58474E3
:1008AC001D460FCD0FC495E8070084E807003B46B2
:1008BC0007F5847219681046FFF718FFCFE06B4BF1
:1008CC0007F1EC041D460FCD0FC495E8070084E832
:1008DC0007003B4607F1EC0219681046FFF706FFCC
:1008EC00BDE0634B07F1D0041D460FCD0FC495E856
:1008FC00070084E807003B4607F1D0021968104650
:10090C00FFF7F4FEABE05B4B07F1B4041D460FCDD3
:10091C000FC495E8070084E807003B4607F1B402D2
:10092C0019681046FFF7E2FE99E0534B07F1980463
:10093C001D460FCD0FC495E8070084E807003B4621
:10094C0007F1980219681046FFF7D0FE87E00023E4
:10095C00FB670123C7F880300023C7F884300023DD
:10096C00C7F888300023C7F88C300023C7F89030C4
:10097C000023C7F894303B4607F17C0219681046F7
:10098C00FFF7B4FE6BE03D4B07F160041D460FCD45
:10099C000FC495E8070084E807003B4607F16002A6
:1009AC0019681046FFF7A2FE59E007F14403002234
:1009BC001A605A609A60DA601A615A619A613B4611
:1009CC0007F1440219681046FFF790FE47E007F163
:1009DC00280300221A6007F1280300225A6007F14D
:1009EC00280300229A6007F128030022DA6007F13D
:1009FC00280301221A6107F1280300225A6107F12A
:100A0C00280300229A613B4607F128021968104618
:100A1C00FFF76CFE23E007F10C0300221A6007F1CC
:100A2C000C0300225A6007F10C0300229A6007F1B4
:100A3C000C030022DA6007F10C0300221A6107F1A3
:100A4C000C0300225A6107F10C0301229A613B4608
:100A5C0007F10C0219681046FFF748FE00BF00BFF3
:100A6C0007F5A077BD46B0BDEC28000808290008A2
:100A7C0024290008402900085C290008782900086E
:100A8C0080B582B000AF786039607B681B68DBB2E0
:100A9C001A460421194800F0EEFE7B6804331B68EB
:100AAC00DBB21A460821154800F0E5FE7B680833D6
:100ABC001B68DBB21A461021104800F0DCFE3B68C4
:100ACC001B68DBB21A4620210C4800F0D4FE3B68B0
:100ADC0004331B68DBB21A464021084800F0CBFEF9
:100AEC003B6808331B68DBB21A468021034800F0D0
:100AFC00C2FE00BF0837BD4680BD00BF00080140E4
:100B0C0080B588B000AF78602B4A07F1140307CA90
:100B1C0083E80700284A07F1080307CA83E807009F
:100B2C007B68032B2ED801A252F823F0490B000846
:100B3C005B0B00086D0B00087F0B000800237B612A
:100B4C000123BB6100233B610123BB6027E0002331
:100B5C007B610123BB610023FB6001233B611EE031
:100B6C000023FB6101237B610023BB600123FB603D
:100B7C0015E00023BB610123FB610023BB60012353
:100B8C00FB600CE001237B6101237B610123BB61D2
:100B9C000123BB610123FB610123FB6100BF07F152
:100BAC00080207F1140311461846FFF769FF00BF4E
:100BBC002037BD4680BD00BF9429000880B582B0A7
:100BCC0000AF78607B68092B1ADD7B68184A82FBC2
:100BDC0003129210DB17D31A00211846FFF71CFEE4
:100BEC007A68134B83FB02139910D317C81A034668
:100BFC009B0003445B00D01A0121FFF70DFE12E0AD
:100C0C0000210020FFF708FE7A68094B83FB0213D2
:100C1C009910D317C81A03469B0003445B00D01AE3
:100C2C000121FFF7F9FD00BF0837BD4680BD00BFAD
:100C3C006766666680B582B000AF786039601A4B23
:100C4C001B68012B2CD1184B00221A604FF48071B9
:100C5C00164800F0F9FD0346002B0FD101224FF48A
:100C6C008071124800F007FE3868FFF7A7FF0022DA
:100C7C004FF400710D4800F0FEFD0EE001224FF420
:100C8C0000710A4800F0F7FD7868FFF797FF002223
:100C9C004FF48071054800F0EEFD7D2000F0C6F9A0
:100CAC0000BF0837BD4680BD9C00002000080140F5
:100CBC0080B500AF0221094800F0C6FD0346002BA9
:100CCC0005D101220221054800F0D5FD04E00022E7
:100CDC000221024800F0CFFD00BF80BD000801409A
:100CEC0080B500AF00F0C6FA00F050F800F0DAF86A
:100CFC0000F088F84FF47A7000F04AF94FF47A70EB
:100D0C0000F060F94FF4FA6000F076F94FF47A7065
:100D1C0000F08CF9174B00221A60174B07221A604F
:100D2C00164B03221A60164B04221A6000224FF451
:100D3C008071144800F09FFD01224FF4007111489E
:100D4C0000F099FD012202210E4800F094FD0020D4
:100D5C00FFF734FFFFF774FB0B4B1B68012BF9D12A
:100D6C00094B00221A60FFF7A3FF4FF4FA7000F052
:100D7C000FF9EFE77C0000208000002084000020A9
:100D8C0088000020000801409000002080B590B041
:100D9C0000AF07F1180328220021184601F08CFD42
:100DAC003B1D00221A605A609A60DA601A610223B5
:100DBC00BB610123BB621023FB6200237B6307F141
:100DCC001803184600F088FD0346002B01D000F0F4
:100DDC00D9F80F237B600023BB600023FB6000234A
:100DEC003B6100237B613B1D0021184600F0F4FFA2
:100DFC000346002B01D000F0C5F800BF4037BD46BC
:100E0C0080BD000080B586B000AF07F1080300225A
:100E1C001A605A609A60DA603B4600221A605A6087
:100E2C001F4B4FF080421A601D4B41F63F725A60C7
:100E3C001B4B00229A601A4B0A22DA60184B0022D4
:100E4C001A61174B00229A61154801F02DF90346DF
:100E5C00002B01D000F096F84FF48053BB6007F1E3
:100E6C00080319460E4801F0C3FA0346002B01D0C3
:100E7C0000F088F800233B6000237B603B4619465A
:100E8C00074801F08BFC0346002B01D000F07AF8E8
:100E9C00034801F059F900BF1837BD4680BD00BFAB
:100EAC00A000002080B586B000AF07F10803002237
:100EBC001A605A609A60DA60294B9B69284A43F0A1
:100ECC0004039361264B9B6903F004037B607B68EE
:100EDC00234B9B69224A43F008039361204B9B6987
:100EEC0003F008033B603B68002240F2FE311D48D2
:100EFC0000F0C1FC002243F6FF711B4800F0BBFC64
:100F0C0040F2FE33BB600123FB6000233B610223F4
:100F1C007B6107F108031946124800F01BFB43F6EE
:100F2C00FF73BB600123FB6000233B6102237B61E9
:100F3C0007F1080319460C4800F00CFB4FF4604312
:100F4C00BB600023FB6001233B6107F108031946DA
:100F5C00044800F0FFFA00BF1837BD4680BD00BF43
:100F6C000010024000080140000C014080B582B026
:100F7C0000AF786000F074F8FFF7BAF900BF0837DB
:100F8C00BD4680BD80B400AF72B600BFFEE7000066
:100F9C0080B483B000AF7860074B1B687A6892FB13
:100FAC00F3F3064A1360064B00221A6000BF0C379D
:100FBC00BD4680BC704700BF38000020F400002004
:100FCC009000002080B483B000AF7860074B1B68A2
:100FDC007A6892FBF3F3064A1360064B00221A6000
:100FEC0000BF0C37BD4680BC704700BF38000020E6
:100FFC00E80000209400002080B483B000AF78603B
:10100C00074B1B687A6892FBF3F3064A1360064B96
:10101C0000221A6000BF0C37BD4680BC704700BF71
:10102C0038000020F00000209800002080B483B02D
:10103C0000AF7860074B1B687A6892FBF3F3064AA3
:10104C001360064B00221A6000BF0C37BD4680BCF3
:10105C00704700BF38000020EC0000209C000020EE
:10106C0080B400AF214B1B68002B0BDD1F4B1B68A2
:10107C00013B1E4A13601D4B1B68002B02DC1C4BF2
:10108C0001221A601B4B1B68002B0BDD194B1B68D4
:10109C00013B184A1360174B1B68002B02DC164BE4
:1010AC0001221A60154B1B68002B0BDD134B1B68C0
:1010BC00013B124A1360114B1B68002B02DC104BD6
:1010CC0001221A600F4B1B68002B0BDD0D4B1B68AC
:1010DC00013B0C4A13600B4B1B68002B02DC0A4BC8
:1010EC0001221A6000BFBD4680BC7047F40000208E
:1010FC0090000020E800002094000020F000002068
:10110C0098000020EC0000209C00002080B485B0EA
:10111C0000AF154B9B69144A43F001039361124BCA
:10112C009B6903F00103BB60BB680F4BDB690E4A84
:10113C0043F08053D3610C4BDB6903F080537B602D
:10114C007B680A4B5B68FB60FB6823F0E063FB6029
:10115C00FB6843F08063FB60044AFB68536000BF8C
:10116C001437BD4680BC704700100240000001409F
:10117C0080B584B000AF78607B681B68B3F1804F9A
:10118C0013D10C4BDB690B4A43F00103D361094BC0
:10119C00DB6903F00103FB60FB68002200211C20CB
:1011AC0000F0A1F91C2000F0BAF900BF1037BD46C1
:1011BC0080BD00BF0010024080B400AFFEE780B4D9
:1011CC0000AFFEE780B400AFFEE780B400AFFEE7EF
:1011DC0080B400AFFEE780B400AF00BFBD4680BC5A
:1011EC00704780B400AF00BFBD4680BC704780B470
:1011FC0000AF00BFBD4680BC704780B500AF00F0AB
:10120C007FF800BF80BD000080B500AF024800F041
:10121C00E7FF00BF80BD00BFA000002080B400AF7E
:10122C0000BFBD4680BC70470C480D490D4A0023D9
:10123C0002E0D458C4500433C4188C42F9D30A4A7F
:10124C000A4C002301E013600432A242FBD3FFF7E7
:10125C00E5FF01F00DFBFFF743FD70470000002098
:10126C0048000020C829000848000020FC0000208D
:10127C00FEE7000080B500AF084B1B68074A43F03F
:10128C0010031360032000F023F90F2000F008F87E
:10129C00FFF73CFF0023184680BD00BF0020024032
:1012AC0080B582B000AF7860124B1A68124B1B7875
:1012BC0019464FF47A73B3FBF1F3B2FBF3F3184610
:1012CC0000F03BF90346002B01D001230EE07B68B4
:1012DC000F2B0AD8002279684FF0FF3000F003F989
:1012EC00064A7B681360002300E001231846083788
:1012FC00BD4680BD3C000020440000204000002082
:10130C0080B400AF054B1B781A46054B1B68134481
:10131C00034A136000BFBD4680BC704744000020E8
:10132C00F800002080B400AF024B1B681846BD4685
:10133C0080BC7047F800002080B485B000AF7860A6
:10134C007B6803F00703FB600C4BDB68BB60BA687F
:10135C004FF6FF031340BB60FB681A02BB681343D4
:10136C0043F0BF6343F40033BB60044ABB68D360F3
:10137C0000BF1437BD4680BC704700BF00ED00E0D5
:10138C0080B400AF044BDB681B0A03F0070318465C
:10139C00BD4680BC704700BF00ED00E080B483B058
:1013AC0000AF0346FB7197F90730002B0BDBFB7981
:1013BC0003F01F02064997F907305B09012000FA78
:1013CC0002F241F8232000BF0C37BD4680BC7047A9
:1013DC0000E100E080B483B000AF03463960FB71DC
:1013EC0097F90730002B0ADB3B68DAB20C4997F906
:1013FC0007301201D2B20B4483F800230AE03B6899
:10140C00DAB20849FB7903F00F03043B1201D2B2A4
:10141C000B441A7600BF0C37BD4680BC704700BF2A
:10142C0000E100E000ED00E080B489B000AFF860AE
:10143C00B9607A60FB6803F00703FB61FB69C3F1D9
:10144C000703042B28BF0423BB61FB690433062B61
:10145C0002D9FB69033B00E000237B614FF0FF32B4
:10146C00BB6902FA03F3DA43BB681A407B699A4002
:10147C004FF0FF317B6901FA03F3D9437B680B40D2
:10148C00134318462437BD4680BC704780B582B0E4
:10149C0000AF78607B68013BB3F1807F01D30123FF
:1014AC000FE00A4A7B68013B53600F214FF0FF307D
:1014BC00FFF790FF054B00229A60044B07221A603D
:1014CC00002318460837BD4680BD00BF10E000E081
:1014DC0080B582B000AF78607868FFF72DFF00BF51
:1014EC000837BD4680BD80B586B000AF0346B960F5
:1014FC007A60FB7300237B61FFF742FF78617A68A7
:10150C00B9687869FFF790FF024697F90F301146DA
:10151C001846FFF75FFF00BF1837BD4680BD80B58A
:10152C0082B000AF0346FB7197F907301846FFF7FE
:10153C0035FF00BF0837BD4680BD80B582B000AF17
:10154C0078607868FFF7A2FF034618460837BD4657
:10155C0080BD000080B48BB000AF78603960002390
:10156C007B6200233B6248E101227B6A02FA03F3AF
:10157C00FB613B681B68FA691340BB61BA69FB6984
:10158C009A4240F037813B685B68A34A93425ED035
:10159C00A14A934275D8A14A934258D09F4A93428C
:1015AC006FD89F4A934252D09D4A934269D89D4A24
:1015BC0093424CD09B4A934263D89B4A934246D069
:1015CC00994A93425DD8122B2AD8122B59D801A2D2
:1015DC0052F823F05B160008351600084716000871
:1015EC00891600088F1600088F1600088F16000841
:1015FC008F1600088F1600088F1600088F1600082B
:10160C008F1600088F1600088F1600088F1600081A
:10161C008F1600088F1600083D160008511600089A
:10162C00824A934213D02CE03B68DB683B6229E092
:10163C003B68DB6804333B6224E03B68DB680833BF
:10164C003B621FE03B68DB680C333B621AE03B6893
:10165C009B68002B02D104233B6213E03B689B6820
:10166C00012B05D108233B627B68FA691A6109E0FA
:10167C0008233B627B68FA695A6103E000233B62F2
:10168C0000E000BFBB69FF2B01D87B6801E07B68E1
:10169C0004337B61BB69FF2B02D87B6A9B0002E0A1
:1016AC007B6A083B9B003B617B691A680F213B6995
:1016BC0001FA03F3DB431A40396A3B6901FA03F37D
:1016CC001A437B691A603B685B6803F08053002BFC
:1016DC0000F09080564B9B69554A43F0010393618F
:1016EC00534B9B6903F00103BB60BB68514A7B6A97
:1016FC009B08023352F82330FB607B6A03F0030330
:10170C009B000F2202FA03F3DB43FA681340FB60E1
:10171C007B68494A93420DD07B68484A934207D074
:10172C007B68474A934201D1022304E0032302E081
:10173C00012300E000237A6A02F003029200934036
:10174C00FA681343FB603B497B6A9B080233FA68D7
:10175C0041F823203B685B6803F48033002B06D0F0
:10176C00384B1A683749BB6913430B6006E0354B9D
:10177C001A68BB69DB43334913400B603B685B68F9
:10178C0003F40033002B06D02E4B5A682D49BB694D
:10179C0013434B6006E02B4B5A68BB69DB4329496A
:1017AC0013404B603B685B6803F48013002B06D03E
:1017BC00244B9A682349BB6913438B6006E0214B89
:1017CC009A68BB69DB431F4913408B603B685B68BD
:1017DC0003F40013002B06D01A4BDA681949BB69C5
:1017EC001343CB6006E0174BDA68BB69DB43154942
:1017FC001340CB607B6A01337B623B681A687B6A5F
:10180C0022FA03F3002B7FF4AFAE00BF00BF2C37DE
:10181C00BD4680BC704700BF000032100000311084
:10182C000000221000002110000012100000111006
:10183C00001002400000014000080140000C014073
:10184C00001001400004014080B485B000AF786006
:10185C000B467B807B689A687B881340002B02D0F8
:10186C000123FB7301E00023FB73FB7B1846143749
:10187C00BD4680BC704780B483B000AF78600B4627
:10188C007B8013467B707B78002B03D07A887B6837
:10189C001A6103E07B881A047B681A6100BF0C375D
:1018AC00BD4680BC704780B485B000AF78600B46F5
:1018BC007B807B68DB68FB607A88FB6813401A04CA
:1018CC00FB68D9437B880B401A437B681A6100BFC5
:1018DC001437BD4680BC704780B586B000AF7860C9
:1018EC007B68002B01D101236CE27B681B6803F041
:1018FC000103002B00F08780924B5B6803F00C0314
:10190C00042B0CD08F4B5B6803F00C03082B12D10B
:10191C008C4B5B6803F48033B3F5803F0BD1894B60
:10192C001B6803F40033002B6CD07B685B68002BC6
:10193C0068D1012346E27B685B68B3F5803F06D132
:10194C00804B1B687F4A43F4803313602EE07B6826
:10195C005B68002B0CD17B4B1B687A4A23F48033D9
:10196C001360784B1B68774A23F4802313601DE0C7
:10197C007B685B68B3F5A02F0CD1724B1B68714A66
:10198C0043F4802313606F4B1B686E4A43F480331F
:10199C0013600BE06B4B1B686A4A23F480331360B3
:1019AC00684B1B68674A23F4802313607B685B6871
:1019BC00002B13D0FFF7B6FC386108E0FFF7B2FC40
:1019CC0002463B69D31A642B01D90323FAE15D4B20
:1019DC001B6803F40033002BF0D014E0FFF7A2FCDB
:1019EC00386108E0FFF79EFC02463B69D31A642B72
:1019FC0001D90323E6E1534B1B6803F40033002B9E
:101A0C00F0D100E000BF7B681B6803F00203002BE1
:101A1C0063D04C4B5B6803F00C03002B0BD0494B91
:101A2C005B6803F00C03082B1CD1464B5B6803F47A
:101A3C008033002B16D1434B1B6803F00203002BA1
:101A4C0005D07B681B69012B01D00123BAE13D4B0A
:101A5C001B6823F0F8027B685B69DB003949134390
:101A6C000B603AE07B681B69002B20D0364B0122BF
:101A7C001A60FFF757FC386108E0FFF753FC024689
:101A8C003B69D31A022B01D903239BE12D4B1B6815
:101A9C0003F00203002BF0D02A4B1B6823F0F80252
:101AAC007B685B69DB00274913430B6015E0264B11
:101ABC0000221A60FFF736FC386108E0FFF732FCB1
:101ACC0002463B69D31A022B01D903237AE11D4B41
:101ADC001B6803F00203002BF0D17B681B6803F03A
:101AEC000803002B3AD07B689B69002B19D0174B4D
:101AFC0001221A60FFF716FC386108E0FFF712FCB0
:101B0C0002463B69D31A022B01D903235AE10D4B30
:101B1C005B6A03F00203002BF0D0012000F0A6FA60
:101B2C001CE00A4B00221A60FFF7FCFB38610FE047
:101B3C00FFF7F8FB02463B69D31A022B08D90323A3
:101B4C0040E100BF001002400000424280044242CB
:101B5C009E4B5B6A03F00203002BE9D17B681B6888
:101B6C0003F00403002B00F0A6800023FB75974BB9
:101B7C00DB6903F08053002B0DD1944BDB69934A46
:101B8C0043F08053D361914BDB6903F08053BB600E
:101B9C00BB680123FB758E4B1B6803F48073002B11
:101BAC0018D18B4B1B688A4A43F480731360FFF780
:101BBC00B9FB386108E0FFF7B5FB02463B69D31A65
:101BCC00642B01D90323FDE0814B1B6803F4807364
:101BDC00002BF0D07B68DB68012B06D17B4B1B6A9A
:101BEC007A4A43F0010313622DE07B68DB68002B1B
:101BFC000CD1764B1B6A754A23F001031362734BAD
:101C0C001B6A724A23F0040313621CE07B68DB68D6
:101C1C00052B0CD16D4B1B6A6C4A43F00403136209
:101C2C006A4B1B6A694A43F0010313620BE0674B72
:101C3C001B6A664A23F001031362644B1B6A634AF6
:101C4C0023F0040313627B68DB68002B15D0FFF7CD
:101C5C0069FB38610AE0FFF765FB02463B69D31A62
:101C6C0041F28832934201D90323ABE0574B1B6AF4
:101C7C0003F00203002BEED014E0FFF753FB3861A6
:101C8C000AE0FFF74FFB02463B69D31A41F2883258
:101C9C00934201D9032395E04C4B1B6A03F00203DA
:101CAC00002BEED1FB7D012B05D1484BDB69474A5C
:101CBC0023F08053D3617B68DB69002B00F08180BB
:101CCC00424B5B6803F00C03082B61D07B68DB692B
:101CDC00022B46D13F4B00221A60FFF723FB3861E1
:101CEC0008E0FFF71FFB02463B69D31A022B01D910
:101CFC00032367E0354B1B6803F00073002BF0D116
:101D0C007B681B6AB3F5803F08D1304B5B6823F4CA
:101D1C0000327B689B682D4913434B602B4B5B68EF
:101D2C0023F474127B68196A7B685B6A0B4327493E
:101D3C0013434B60274B01221A60FFF7F3FA38610B
:101D4C0008E0FFF7EFFA02463B69D31A022B01D9E0
:101D5C00032337E01D4B1B6803F00073002BF0D0FE
:101D6C002FE01C4B00221A60FFF7DCFA386108E008
:101D7C00FFF7D8FA02463B69D31A022B01D9032389
:101D8C0020E0124B1B6803F00073002BF0D118E01D
:101D9C007B68DB69012B01D1012313E00B4B5B68E2
:101DAC00FB60FB6803F480327B681B6A9A4206D1A5
:101DBC00FB6803F470127B685B6A9A4201D00123C2
:101DCC0000E0002318461837BD4680BD00100240C5
:101DDC00007000406000424280B584B000AF786073
:101DEC0039607B68002B01D10123D0E06A4B1B6862
:101DFC0003F007033A689A4210D9674B1B6823F02B
:101E0C00070265493B6813430B60634B1B6803F087
:101E1C0007033A689A4201D00123B8E07B681B683B
:101E2C0003F00203002B20D07B681B6803F0040333
:101E3C00002B05D0594B5B68584A43F4E063536060
:101E4C007B681B6803F00803002B05D0534B5B68C1
:101E5C00524A43F460535360504B5B6823F0F002DA
:101E6C007B689B684D4913434B607B681B6803F090
:101E7C000103002B40D07B685B68012B07D1474BDB
:101E8C001B6803F40033002B15D101237FE07B6822
:101E9C005B68022B07D1414B1B6803F00073002BCE
:101EAC0009D1012373E03D4B1B6803F00203002BA7
:101EBC0001D101236BE0394B5B6823F003027B6893
:101ECC005B68364913434B60FFF72CFAF8600AE065
:101EDC00FFF728FA0246FB68D31A41F28832934284
:101EEC0001D9032353E02D4B5B6803F00C027B6894
:101EFC005B689B009A42EBD1274B1B6803F00703EE
:101F0C003A689A4210D2244B1B6823F007022249EC
:101F1C003B6813430B60204B1B6803F007033A68C4
:101F2C009A4201D0012332E07B681B6803F0040362
:101F3C00002B08D0194B5B6823F4E0627B68DB68EC
:101F4C00164913434B607B681B6803F00803002B96
:101F5C0009D0124B5B6823F460527B681B69DB0071
:101F6C000E4913434B6000F021F802460B4B5B68A3
:101F7C001B0903F00F030A49CB5C22FA03F3094A4D
:101F8C001360094B1B681846FFF78AF900231846A3
:101F9C001037BD4680BD00BF00200240001002403B
:101FAC00B02900083C0000204000002090B48AB00A
:101FBC0000AF2A4B3C1D0FCB84E80F0040F20123ED
:101FCC003B800023FB610023BB6100237B62002369
:101FDC007B6100233B62224B5B68FB61FB6903F076
:101FEC000C03042B02D0082B03D02DE01D4B3B62BD
:101FFC002DE0FB699B0C03F00F0307F1280213443F
:10200C0013F8243C7B61FB6903F48033002B13D061
:10201C00134B5B685B0C03F0010307F128021344BC
:10202C0013F8283CBB617B690E4A02FB03F2BB69C7
:10203C00B2FBF3F37B6204E07B690B4A02FB03F314
:10204C007B627B6A3B6202E0064B3B6200BF3B6AF1
:10205C0018462837BD4690BC704700BFA029000821
:10206C000010024000127A0000093D0080B485B0D7
:10207C0000AF78600A4B1B680A4AA2FB03235B0A79
:10208C007A6802FB03F3FB6000BFFB685A1EFA6020
:10209C00002BF9D100BF00BF1437BD4680BC704780
:1020AC003C000020D34D621080B582B000AF786048
:1020BC007B68002B01D1012341E07B6893F83D3014
:1020CC00DBB2002B06D17B68002283F83C207868B9
:1020DC00FFF74EF87B68022283F83D207B681A6874
:1020EC007B6804331946104600F06AFA7B680122BB
:1020FC0083F846207B68012283F83E207B6801220E
:10210C0083F83F207B68012283F840207B68012202
:10211C0083F841207B68012283F842207B680122EE
:10212C0083F843207B68012283F844207B680122DA
:10213C0083F845207B68012283F83D200023184654
:10214C000837BD4680BD000080B485B000AF786014
:10215C007B6893F83D30DBB2012B01D0012335E0D5
:10216C007B68022283F83D207B681B68DA687B68F9
:10217C001B6842F00102DA607B681B68164A9342C6
:10218C0009D07B681B68B3F1804F04D07B681B6857
:10219C00124A934211D17B681B689B6803F00703BA
:1021AC00FB60FB68062B10D07B681B681A687B6889
:1021BC001B6842F001021A6007E07B681B681A6812
:1021CC007B681B6842F001021A6000231846143722
:1021DC00BD4680BC704700BF002C0140000400408D
:1021EC0080B582B000AF78607B681B681B6903F018
:1021FC000203022B22D17B681B68DB6803F002030D
:10220C00022B1BD17B681B686FF002021A617B6882
:10221C0001221A777B681B689B6903F00303002B70
:10222C0003D0786800F0B1F905E0786800F0A4F903
:10223C00786800F0B3F97B6800221A777B681B681A
:10224C001B6903F00403042B22D17B681B68DB6839
:10225C0003F00403042B1BD17B681B686FF0040292
:10226C001A617B6802221A777B681B689B6903F4EE
:10227C004073002B03D0786800F087F905E078688C
:10228C0000F07AF9786800F089F97B6800221A77F7
:10229C007B681B681B6903F00803082B22D17B6841
:1022AC001B68DB6803F00803082B1BD17B681B68D9
:1022BC006FF008021A617B6804221A777B681B682E
:1022CC00DB6903F00303002B03D0786800F05DF9A1
:1022DC0005E0786800F050F9786800F05FF97B68E9
:1022EC0000221A777B681B681B6903F01003102B04
:1022FC0022D17B681B68DB6803F01003102B1BD109
:10230C007B681B686FF010021A617B6808221A77D1
:10231C007B681B68DB6903F44073002B03D078687F
:10232C0000F033F905E0786800F026F9786800F0E1
:10233C0035F97B6800221A777B681B681B6903F0F0
:10234C000103012B0ED17B681B68DB6803F00103D2
:10235C00012B07D17B681B686FF001021A6178684A
:10236C00FEF704FE7B681B681B6903F08003802B5F
:10237C000ED17B681B68DB6803F08003802B07D1D0
:10238C007B681B686FF080021A61786800F067FA4E
:10239C007B681B681B6903F04003402B0ED17B68E4
:1023AC001B68DB6803F04003402B07D17B681B687C
:1023BC006FF040021A61786800F0F9F87B681B68CE
:1023CC001B6903F02003202B0ED17B681B68DB6894
:1023DC0003F02003202B07D17B681B686FF02002D1
:1023EC001A61786800F032FA00BF0837BD4680BD2C
:1023FC0080B584B000AF786039607B6893F83C306E
:10240C00012B01D10223B3E07B68012283F83C202D
:10241C007B68022283F83D207B681B689B68FB600D
:10242C00FB6823F07703FB60FB6823F47F43FB60BE
:10243C007B681B68FA689A603B681B68B3F5005FA1
:10244C003ED0B3F5005F00F28780B3F5805F00F0FB
:10245C008580B3F5805F7FD8702B1AD0702B7BD81A
:10246C00602B50D0602B77D8502B3CD0502B73D88E
:10247C00402B58D0402B6FD8302B64D0302B6BD8DE
:10248C00202B60D0202B67D8002B5CD0102B5AD07F
:10249C0062E07B6818683B6899683B685A683B68DF
:1024AC00DB6800F05CF97B681B689B68FB60FB6871
:1024BC0043F07703FB607B681B68FA689A604EE018
:1024CC007B6818683B6899683B685A683B68DB68AE
:1024DC0000F045F97B681B689A687B681B6842F4BE
:1024EC0080429A603BE07B6818683B6859683B689F
:1024FC00DB681A4600F0BCF87B681B685021184654
:10250C0000F013F92BE07B6818683B6859683B684E
:10251C00DB681A4600F0DAF87B681B686021184605
:10252C0000F003F91BE07B6818683B6859683B684E
:10253C00DB681A4600F09CF87B681B684021184643
:10254C0000F0F3F80BE07B681A683B681B681946CF
:10255C00104600F0EAF802E000BF00E000BF7B6824
:10256C00012283F83D207B68002283F83C20002365
:10257C0018461037BD4680BD80B483B000AF78607C
:10258C0000BF0C37BD4680BC704780B483B000AF31
:10259C00786000BF0C37BD4680BC704780B483B0F8
:1025AC0000AF786000BF0C37BD4680BC704780B46C
:1025BC0083B000AF786000BF0C37BD4680BC70475D
:1025CC0080B485B000AF786039607B681B68FB60B5
:1025DC007B68254A934207D07B68B3F1804F03D0C8
:1025EC007B68224A934208D1FB6823F07003FB609E
:1025FC003B685B68FA681343FB607B681A4A93423A
:10260C0007D07B68B3F1804F03D07B68174A9342A5
:10261C0008D1FB6823F44073FB603B68DB68FA6805
:10262C001343FB60FB6823F080023B685B69134338
:10263C00FB607B68FA681A603B689A687B68DA62B0
:10264C003B681A687B689A627B68074A934203D19D
:10265C003B681A697B681A637B6801225A6100BF68
:10266C001437BD4680BC7047002C0140000400406C
:10267C0080B487B000AFF860B9607A60FB681B6A01
:10268C007B61FB681B6A23F00102FB681A62FB6822
:10269C009B693B613B6923F0F0033B617B681B0149
:1026AC003A6913433B617B6923F00A037B617A69C6
:1026BC00BB6813437B61FB683A699A61FB687A6972
:1026CC001A6200BF1C37BD4680BC704780B487B00F
:1026DC0000AFF860B9607A60FB681B6A23F01002E7
:1026EC00FB681A62FB689B697B61FB681B6A3B6138
:1026FC007B6923F470437B617B681B037A6913430A
:10270C007B613B6923F0A0033B61BB681B013A6909
:10271C0013433B61FB687A699A61FB683A691A62F8
:10272C0000BF1C37BD4680BC704780B485B000AF7D
:10273C00786039607B689B68FB60FB6823F07003F2
:10274C00FB603A68FB68134343F00703FB607B684C
:10275C00FA689A6000BF1437BD4680BC704780B4DD
:10276C0087B000AFF860B9607A603B60FB689B682B
:10277C007B617B6923F47F437B613B681A027B6836
:10278C001A43BB6813437A6913437B61FB687A690C
:10279C009A6000BF1C37BD4680BC704780B485B0C2
:1027AC0000AF786039607B6893F83C30012B01D125
:1027BC00022341E07B68012283F83C207B680222E3
:1027CC0083F83D207B681B685B68FB607B681B683B
:1027DC009B68BB60FB6823F07003FB603B681B6865
:1027EC00FA681343FB607B681B68FA685A607B6865
:1027FC001B68144A934209D07B681B68B3F1804F65
:10280C0004D07B681B68104A93420CD1BB6823F040
:10281C008003BB603B685B68BA681343BB607B6832
:10282C001B68BA689A607B68012283F83D207B683C
:10283C00002283F83C20002318461437BD4680BC88
:10284C00704700BF002C01400004004080B483B0EE
:10285C0000AF786000BF0C37BD4680BC704780B4B9
:10286C0083B000AF786000BF0C37BD4680BC7047AA
:10287C0070B500260C4D0D4C641BA410A64209D15A
:10288C0000F022F800260A4D0A4C641BA410A64244
:10289C0005D170BD55F8043B98470136EEE755F865
:1028AC00043B98470136F2E7C0290008C02900080C
:1028BC00C0290008C429000803460244934200D1F1
:1028CC00704703F8011BF9E7F8B500BFF8BC08BC6A
:1028DC009E467047F8B500BFF8BC08BC9E467047D2
:1028EC0001000000000000000000000001000000DA
:1028FC0001000000010000000100000000000000C9
:10290C0000000000010000000000000000000000BA
:10291C0001000000000000000000000000000000AA
:10292C000000000000000000010000000100000099
:10293C00000000000100000000000000000000008A
:10294C000100000001000000000000000000000079
:10295C00000000000100000000000000000000006A
:10296C00010000000000000000000000000000005A
:10297C000000000000000000010000000100000049
:10298C000100000001000000010000000100000037
:10299C000100000002030405060708090A0B0C0DD0
:1029AC000E0F1010000000000000000001020304D4
:0429BC0006070809F9
:0429C00031010008D9
:0429C4000D010008F9
:1029C80001000000010000000100000001000000FB
:1029D80001000000010000000100000001000000EB
:1029E80001000000010000000100000001000000DB
:1029F8002C010000FFFFFFFF0A0000000024F40084
:082A08001000000001000000B5
:0400000508001235A8
:00000001FF
